{
  "_format": "hh-sol-artifact-1",
  "contractName": "MyEpicNFT",
  "sourceName": "contracts/MyEpicNFT.sol",
  "abi": [
    {
      "inputs": [],
      "stateMutability": "nonpayable",
      "type": "constructor"
    },
    {
      "anonymous": false,
      "inputs": [
        {
          "indexed": true,
          "internalType": "address",
          "name": "owner",
          "type": "address"
        },
        {
          "indexed": true,
          "internalType": "address",
          "name": "approved",
          "type": "address"
        },
        {
          "indexed": true,
          "internalType": "uint256",
          "name": "tokenId",
          "type": "uint256"
        }
      ],
      "name": "Approval",
      "type": "event"
    },
    {
      "anonymous": false,
      "inputs": [
        {
          "indexed": true,
          "internalType": "address",
          "name": "owner",
          "type": "address"
        },
        {
          "indexed": true,
          "internalType": "address",
          "name": "operator",
          "type": "address"
        },
        {
          "indexed": false,
          "internalType": "bool",
          "name": "approved",
          "type": "bool"
        }
      ],
      "name": "ApprovalForAll",
      "type": "event"
    },
    {
      "anonymous": false,
      "inputs": [
        {
          "indexed": false,
          "internalType": "address",
          "name": "sender",
          "type": "address"
        },
        {
          "indexed": false,
          "internalType": "uint256",
          "name": "tokenId",
          "type": "uint256"
        }
      ],
      "name": "NewEpicNFTMinted",
      "type": "event"
    },
    {
      "anonymous": false,
      "inputs": [
        {
          "indexed": true,
          "internalType": "address",
          "name": "from",
          "type": "address"
        },
        {
          "indexed": true,
          "internalType": "address",
          "name": "to",
          "type": "address"
        },
        {
          "indexed": true,
          "internalType": "uint256",
          "name": "tokenId",
          "type": "uint256"
        }
      ],
      "name": "Transfer",
      "type": "event"
    },
    {
      "inputs": [
        {
          "internalType": "address",
          "name": "to",
          "type": "address"
        },
        {
          "internalType": "uint256",
          "name": "tokenId",
          "type": "uint256"
        }
      ],
      "name": "approve",
      "outputs": [],
      "stateMutability": "nonpayable",
      "type": "function"
    },
    {
      "inputs": [
        {
          "internalType": "address",
          "name": "owner",
          "type": "address"
        }
      ],
      "name": "balanceOf",
      "outputs": [
        {
          "internalType": "uint256",
          "name": "",
          "type": "uint256"
        }
      ],
      "stateMutability": "view",
      "type": "function"
    },
    {
      "inputs": [
        {
          "internalType": "uint256",
          "name": "tokenId",
          "type": "uint256"
        }
      ],
      "name": "getApproved",
      "outputs": [
        {
          "internalType": "address",
          "name": "",
          "type": "address"
        }
      ],
      "stateMutability": "view",
      "type": "function"
    },
    {
      "inputs": [],
      "name": "getTotalNFTsMintedSoFar",
      "outputs": [
        {
          "internalType": "uint256",
          "name": "",
          "type": "uint256"
        }
      ],
      "stateMutability": "view",
      "type": "function"
    },
    {
      "inputs": [
        {
          "internalType": "address",
          "name": "owner",
          "type": "address"
        },
        {
          "internalType": "address",
          "name": "operator",
          "type": "address"
        }
      ],
      "name": "isApprovedForAll",
      "outputs": [
        {
          "internalType": "bool",
          "name": "",
          "type": "bool"
        }
      ],
      "stateMutability": "view",
      "type": "function"
    },
    {
      "inputs": [],
      "name": "makeAnEpicNFT",
      "outputs": [],
      "stateMutability": "nonpayable",
      "type": "function"
    },
    {
      "inputs": [],
      "name": "name",
      "outputs": [
        {
          "internalType": "string",
          "name": "",
          "type": "string"
        }
      ],
      "stateMutability": "view",
      "type": "function"
    },
    {
      "inputs": [
        {
          "internalType": "uint256",
          "name": "tokenId",
          "type": "uint256"
        }
      ],
      "name": "ownerOf",
      "outputs": [
        {
          "internalType": "address",
          "name": "",
          "type": "address"
        }
      ],
      "stateMutability": "view",
      "type": "function"
    },
    {
      "inputs": [
        {
          "internalType": "uint256",
          "name": "tokenId",
          "type": "uint256"
        }
      ],
      "name": "pickRandomFirstWord",
      "outputs": [
        {
          "internalType": "string",
          "name": "",
          "type": "string"
        }
      ],
      "stateMutability": "view",
      "type": "function"
    },
    {
      "inputs": [
        {
          "internalType": "uint256",
          "name": "tokenId",
          "type": "uint256"
        }
      ],
      "name": "pickRandomSecondWord",
      "outputs": [
        {
          "internalType": "string",
          "name": "",
          "type": "string"
        }
      ],
      "stateMutability": "view",
      "type": "function"
    },
    {
      "inputs": [
        {
          "internalType": "uint256",
          "name": "tokenId",
          "type": "uint256"
        }
      ],
      "name": "pickRandomThirdWord",
      "outputs": [
        {
          "internalType": "string",
          "name": "",
          "type": "string"
        }
      ],
      "stateMutability": "view",
      "type": "function"
    },
    {
      "inputs": [
        {
          "internalType": "address",
          "name": "from",
          "type": "address"
        },
        {
          "internalType": "address",
          "name": "to",
          "type": "address"
        },
        {
          "internalType": "uint256",
          "name": "tokenId",
          "type": "uint256"
        }
      ],
      "name": "safeTransferFrom",
      "outputs": [],
      "stateMutability": "nonpayable",
      "type": "function"
    },
    {
      "inputs": [
        {
          "internalType": "address",
          "name": "from",
          "type": "address"
        },
        {
          "internalType": "address",
          "name": "to",
          "type": "address"
        },
        {
          "internalType": "uint256",
          "name": "tokenId",
          "type": "uint256"
        },
        {
          "internalType": "bytes",
          "name": "_data",
          "type": "bytes"
        }
      ],
      "name": "safeTransferFrom",
      "outputs": [],
      "stateMutability": "nonpayable",
      "type": "function"
    },
    {
      "inputs": [
        {
          "internalType": "address",
          "name": "operator",
          "type": "address"
        },
        {
          "internalType": "bool",
          "name": "approved",
          "type": "bool"
        }
      ],
      "name": "setApprovalForAll",
      "outputs": [],
      "stateMutability": "nonpayable",
      "type": "function"
    },
    {
      "inputs": [
        {
          "internalType": "bytes4",
          "name": "interfaceId",
          "type": "bytes4"
        }
      ],
      "name": "supportsInterface",
      "outputs": [
        {
          "internalType": "bool",
          "name": "",
          "type": "bool"
        }
      ],
      "stateMutability": "view",
      "type": "function"
    },
    {
      "inputs": [],
      "name": "symbol",
      "outputs": [
        {
          "internalType": "string",
          "name": "",
          "type": "string"
        }
      ],
      "stateMutability": "view",
      "type": "function"
    },
    {
      "inputs": [
        {
          "internalType": "uint256",
          "name": "tokenId",
          "type": "uint256"
        }
      ],
      "name": "tokenURI",
      "outputs": [
        {
          "internalType": "string",
          "name": "",
          "type": "string"
        }
      ],
      "stateMutability": "view",
      "type": "function"
    },
    {
      "inputs": [
        {
          "internalType": "address",
          "name": "from",
          "type": "address"
        },
        {
          "internalType": "address",
          "name": "to",
          "type": "address"
        },
        {
          "internalType": "uint256",
          "name": "tokenId",
          "type": "uint256"
        }
      ],
      "name": "transferFrom",
      "outputs": [],
      "stateMutability": "nonpayable",
      "type": "function"
    }
  ],
  "bytecode": "0x608060405260405180610160016040528061012f8152602001620045b161012f913960099080519060200190620000389291906200067e565b506040518060c001604052806040518060400160405280600581526020017f416c69656e00000000000000000000000000000000000000000000000000000081525081526020016040518060400160405280600a81526020017f50726f6d6574686575730000000000000000000000000000000000000000000081525081526020016040518060400160405280600581526020017f52616d626f00000000000000000000000000000000000000000000000000000081525081526020016040518060400160405280600881526020017f5072656461746f7200000000000000000000000000000000000000000000000081525081526020016040518060400160405280600681526020017f4c6f6f706572000000000000000000000000000000000000000000000000000081525081526020016040518060400160405280600581526020017f4162797373000000000000000000000000000000000000000000000000000000815250815250600a906006620001b69291906200070f565b506040518060c001604052806040518060400160405280600581526020017f477265656e00000000000000000000000000000000000000000000000000000081525081526020016040518060400160405280600581526020017f426c61636b00000000000000000000000000000000000000000000000000000081525081526020016040518060400160405280600681526020017f59656c6c6f77000000000000000000000000000000000000000000000000000081525081526020016040518060400160405280600581526020017f576869746500000000000000000000000000000000000000000000000000000081525081526020016040518060400160405280600381526020017f526564000000000000000000000000000000000000000000000000000000000081525081526020016040518060400160405280600481526020017f426c756500000000000000000000000000000000000000000000000000000000815250815250600b906006620003349291906200070f565b506040518060c001604052806040518060400160405280600581526020017f537061636500000000000000000000000000000000000000000000000000000081525081526020016040518060400160405280600781526020017f4f70656e5365610000000000000000000000000000000000000000000000000081525081526020016040518060400160405280600981526020017f53616e637475617279000000000000000000000000000000000000000000000081525081526020016040518060400160405280600681526020017f54656d706c65000000000000000000000000000000000000000000000000000081525081526020016040518060400160405280600a81526020017f436170746976617465640000000000000000000000000000000000000000000081525081526020016040518060400160405280600481526020017f4672656500000000000000000000000000000000000000000000000000000000815250815250600c906006620004b29291906200070f565b50348015620004c057600080fd5b506040518060400160405280600881526020017f4e6174616e4e46540000000000000000000000000000000000000000000000008152506040518060400160405280600581526020017f4e4154414e0000000000000000000000000000000000000000000000000000008152508160009080519060200190620005459291906200067e565b5080600190805190602001906200055e9291906200067e565b505050620005ac6040518060400160405280601e81526020017f54686973206973206d79204e465420636f6e74726163742e20576f6168210000815250620005b260201b620011ac1760201c565b62000930565b6200065281604051602401620005c9919062000844565b6040516020818303038152906040527f41304fac000000000000000000000000000000000000000000000000000000007bffffffffffffffffffffffffffffffffffffffffffffffffffffffff19166020820180517bffffffffffffffffffffffffffffffffffffffffffffffffffffffff83818316178352505050506200065560201b60201c565b50565b60008151905060006a636f6e736f6c652e6c6f679050602083016000808483855afa5050505050565b8280546200068c90620008ba565b90600052602060002090601f016020900481019282620006b05760008555620006fc565b82601f10620006cb57805160ff1916838001178555620006fc565b82800160010185558215620006fc579182015b82811115620006fb578251825591602001919060010190620006de565b5b5090506200070b919062000776565b5090565b82805482825590600052602060002090810192821562000763579160200282015b8281111562000762578251829080519060200190620007519291906200067e565b509160200191906001019062000730565b5b50905062000772919062000795565b5090565b5b808211156200079157600081600090555060010162000777565b5090565b5b80821115620007b95760008181620007af9190620007bd565b5060010162000796565b5090565b508054620007cb90620008ba565b6000825580601f10620007df575062000800565b601f016020900490600052602060002090810190620007ff919062000776565b5b50565b6000620008108262000868565b6200081c818562000873565b93506200082e81856020860162000884565b62000839816200091f565b840191505092915050565b6000602082019050818103600083015262000860818462000803565b905092915050565b600081519050919050565b600082825260208201905092915050565b60005b83811015620008a457808201518184015260208101905062000887565b83811115620008b4576000848401525b50505050565b60006002820490506001821680620008d357607f821691505b60208210811415620008ea57620008e9620008f0565b5b50919050565b7f4e487b7100000000000000000000000000000000000000000000000000000000600052602260045260246000fd5b6000601f19601f8301169050919050565b613c7180620009406000396000f3fe608060405234801561001057600080fd5b50600436106101165760003560e01c806370a08231116100a2578063b88d4fde11610071578063b88d4fde14610305578063c575757a14610321578063c87b56dd14610351578063de9d132f14610381578063e985e9c51461038b57610116565b806370a082311461026b57806395d89b411461029b578063a22cb465146102b9578063b187301f146102d557610116565b8063095ea7b3116100e9578063095ea7b3146101b757806323b872dd146101d35780632de38d68146101ef57806342842e0e1461021f5780636352211e1461023b57610116565b806301ffc9a71461011b578063060475901461014b57806306fdde0314610169578063081812fc14610187575b600080fd5b61013560048036038101906101309190612648565b6103bb565b6040516101429190612dba565b60405180910390f35b61015361049d565b604051610160919061308c565b60405180910390f35b6101716104a7565b60405161017e9190612dd5565b60405180910390f35b6101a1600480360381019061019c919061269a565b610539565b6040516101ae9190612d2a565b60405180910390f35b6101d160048036038101906101cc919061260c565b6105be565b005b6101ed60048036038101906101e89190612506565b6106d6565b005b6102096004803603810190610204919061269a565b610736565b6040516102169190612dd5565b60405180910390f35b61023960048036038101906102349190612506565b610854565b005b6102556004803603810190610250919061269a565b610874565b6040516102629190612d2a565b60405180910390f35b610285600480360381019061028091906124a1565b610926565b604051610292919061308c565b60405180910390f35b6102a36109de565b6040516102b09190612dd5565b60405180910390f35b6102d360048036038101906102ce91906125d0565b610a70565b005b6102ef60048036038101906102ea919061269a565b610a86565b6040516102fc9190612dd5565b60405180910390f35b61031f600480360381019061031a9190612555565b610ba4565b005b61033b6004803603810190610336919061269a565b610c06565b6040516103489190612dd5565b60405180910390f35b61036b6004803603810190610366919061269a565b610d24565b6040516103789190612dd5565b60405180910390f35b610389610e76565b005b6103a560048036038101906103a091906124ca565b611118565b6040516103b29190612dba565b60405180910390f35b60007f80ac58cd000000000000000000000000000000000000000000000000000000007bffffffffffffffffffffffffffffffffffffffffffffffffffffffff1916827bffffffffffffffffffffffffffffffffffffffffffffffffffffffff1916148061048657507f5b5e139f000000000000000000000000000000000000000000000000000000007bffffffffffffffffffffffffffffffffffffffffffffffffffffffff1916827bffffffffffffffffffffffffffffffffffffffffffffffffffffffff1916145b80610496575061049582611245565b5b9050919050565b6000600854905090565b6060600080546104b690613320565b80601f01602080910402602001604051908101604052809291908181526020018280546104e290613320565b801561052f5780601f106105045761010080835404028352916020019161052f565b820191906000526020600020905b81548152906001019060200180831161051257829003601f168201915b5050505050905090565b6000610544826112af565b610583576040517f08c379a000000000000000000000000000000000000000000000000000000000815260040161057a90612fcc565b60405180910390fd5b6004600083815260200190815260200160002060009054906101000a900473ffffffffffffffffffffffffffffffffffffffff169050919050565b60006105c982610874565b90508073ffffffffffffffffffffffffffffffffffffffff168373ffffffffffffffffffffffffffffffffffffffff16141561063a576040517f08c379a00000000000000000000000000000000000000000000000000000000081526004016106319061302c565b60405180910390fd5b8073ffffffffffffffffffffffffffffffffffffffff1661065961131b565b73ffffffffffffffffffffffffffffffffffffffff16148061068857506106878161068261131b565b611118565b5b6106c7576040517f08c379a00000000000000000000000000000000000000000000000000000000081526004016106be90612f0c565b60405180910390fd5b6106d18383611323565b505050565b6106e76106e161131b565b826113dc565b610726576040517f08c379a000000000000000000000000000000000000000000000000000000000815260040161071d9061304c565b60405180910390fd5b6107318383836114ba565b505050565b6060600061076a61074684611716565b6040516020016107569190612ce6565b6040516020818303038152906040526118c3565b9050600a805490508161077d91906133cc565b9050600a81815481106107b9577f4e487b7100000000000000000000000000000000000000000000000000000000600052603260045260246000fd5b9060005260206000200180546107ce90613320565b80601f01602080910402602001604051908101604052809291908181526020018280546107fa90613320565b80156108475780601f1061081c57610100808354040283529160200191610847565b820191906000526020600020905b81548152906001019060200180831161082a57829003601f168201915b5050505050915050919050565b61086f83838360405180602001604052806000815250610ba4565b505050565b6000806002600084815260200190815260200160002060009054906101000a900473ffffffffffffffffffffffffffffffffffffffff169050600073ffffffffffffffffffffffffffffffffffffffff168173ffffffffffffffffffffffffffffffffffffffff16141561091d576040517f08c379a000000000000000000000000000000000000000000000000000000000815260040161091490612f4c565b60405180910390fd5b80915050919050565b60008073ffffffffffffffffffffffffffffffffffffffff168273ffffffffffffffffffffffffffffffffffffffff161415610997576040517f08c379a000000000000000000000000000000000000000000000000000000000815260040161098e90612f2c565b60405180910390fd5b600360008373ffffffffffffffffffffffffffffffffffffffff1673ffffffffffffffffffffffffffffffffffffffff168152602001908152602001600020549050919050565b6060600180546109ed90613320565b80601f0160208091040260200160405190810160405280929190818152602001828054610a1990613320565b8015610a665780601f10610a3b57610100808354040283529160200191610a66565b820191906000526020600020905b815481529060010190602001808311610a4957829003601f168201915b5050505050905090565b610a82610a7b61131b565b83836118f6565b5050565b60606000610aba610a9684611716565b604051602001610aa69190612c7f565b6040516020818303038152906040526118c3565b9050600b8054905081610acd91906133cc565b9050600b8181548110610b09577f4e487b7100000000000000000000000000000000000000000000000000000000600052603260045260246000fd5b906000526020600020018054610b1e90613320565b80601f0160208091040260200160405190810160405280929190818152602001828054610b4a90613320565b8015610b975780601f10610b6c57610100808354040283529160200191610b97565b820191906000526020600020905b815481529060010190602001808311610b7a57829003601f168201915b5050505050915050919050565b610bb5610baf61131b565b836113dc565b610bf4576040517f08c379a0000000000000000000000000000000000000000000000000000000008152600401610beb9061304c565b60405180910390fd5b610c0084848484611a63565b50505050565b60606000610c3a610c1684611716565b604051602001610c269190612c5d565b6040516020818303038152906040526118c3565b9050600c8054905081610c4d91906133cc565b9050600c8181548110610c89577f4e487b7100000000000000000000000000000000000000000000000000000000600052603260045260246000fd5b906000526020600020018054610c9e90613320565b80601f0160208091040260200160405190810160405280929190818152602001828054610cca90613320565b8015610d175780601f10610cec57610100808354040283529160200191610d17565b820191906000526020600020905b815481529060010190602001808311610cfa57829003601f168201915b5050505050915050919050565b6060610d2f826112af565b610d6e576040517f08c379a0000000000000000000000000000000000000000000000000000000008152600401610d6590612fac565b60405180910390fd5b6000600660008481526020019081526020016000208054610d8e90613320565b80601f0160208091040260200160405190810160405280929190818152602001828054610dba90613320565b8015610e075780601f10610ddc57610100808354040283529160200191610e07565b820191906000526020600020905b815481529060010190602001808311610dea57829003601f168201915b505050505090506000610e18611abf565b9050600081511415610e2e578192505050610e71565b600082511115610e63578082604051602001610e4b929190612bb7565b60405160208183030381529060405292505050610e71565b610e6c84611ad6565b925050505b919050565b60086000815480929190610e8990613383565b9190505550600660085410610ed3576040517f08c379a0000000000000000000000000000000000000000000000000000000008152600401610eca9061306c565b60405180910390fd5b6000610edf6007611b7d565b90506000610eec82610736565b90506000610ef983610a86565b90506000610f0684610c06565b90506000838383604051602001610f1f93929190612bdb565b60405160208183030381529060405290506000600982604051602001610f46929190612c0c565b60405160208183030381529060405290506000610f8b83610f6684611b8b565b604051602001610f77929190612ca1565b604051602081830303815290604052611b8b565b9050610fcc6040518060400160405280600681526020017f6a736f6e3a20000000000000000000000000000000000000000000000000000081525082611d49565b600081604051602001610fdf9190612d08565b604051602081830303815290604052905061102e6040518060400160405280601581526020017f0a2d2d2d2d2d2d2d2d2d2d2d2d2d2d2d2d2d2d2d2d00000000000000000000008152506111ac565b611056816040516020016110429190612c3b565b6040516020818303038152906040526111ac565b6110946040518060400160405280601581526020017f2d2d2d2d2d2d2d2d2d2d2d2d2d2d2d2d2d2d2d2d0a00000000000000000000008152506111ac565b61109e3389611de5565b6110a88882611e03565b6110b26007611e77565b6110d5604051806060016040528060258152602001613bd7602591398933611e8d565b7febb98688741ffa4c7589bf325de30cf7becb63de567842e1ccdb6cb949fdc82c3389604051611106929190612d91565b60405180910390a15050505050505050565b6000600560008473ffffffffffffffffffffffffffffffffffffffff1673ffffffffffffffffffffffffffffffffffffffff16815260200190815260200160002060008373ffffffffffffffffffffffffffffffffffffffff1673ffffffffffffffffffffffffffffffffffffffff16815260200190815260200160002060009054906101000a900460ff16905092915050565b611242816040516024016111c09190612dd5565b6040516020818303038152906040527f41304fac000000000000000000000000000000000000000000000000000000007bffffffffffffffffffffffffffffffffffffffffffffffffffffffff19166020820180517bffffffffffffffffffffffffffffffffffffffffffffffffffffffff8381831617835250505050611f2c565b50565b60007f01ffc9a7000000000000000000000000000000000000000000000000000000007bffffffffffffffffffffffffffffffffffffffffffffffffffffffff1916827bffffffffffffffffffffffffffffffffffffffffffffffffffffffff1916149050919050565b60008073ffffffffffffffffffffffffffffffffffffffff166002600084815260200190815260200160002060009054906101000a900473ffffffffffffffffffffffffffffffffffffffff1673ffffffffffffffffffffffffffffffffffffffff1614159050919050565b600033905090565b816004600083815260200190815260200160002060006101000a81548173ffffffffffffffffffffffffffffffffffffffff021916908373ffffffffffffffffffffffffffffffffffffffff160217905550808273ffffffffffffffffffffffffffffffffffffffff1661139683610874565b73ffffffffffffffffffffffffffffffffffffffff167f8c5be1e5ebec7d5bd14f71427d1e84f3dd0314c0f7b2291e5b200ac8c7c3b92560405160405180910390a45050565b60006113e7826112af565b611426576040517f08c379a000000000000000000000000000000000000000000000000000000000815260040161141d90612eec565b60405180910390fd5b600061143183610874565b90508073ffffffffffffffffffffffffffffffffffffffff168473ffffffffffffffffffffffffffffffffffffffff1614806114a057508373ffffffffffffffffffffffffffffffffffffffff1661148884610539565b73ffffffffffffffffffffffffffffffffffffffff16145b806114b157506114b08185611118565b5b91505092915050565b8273ffffffffffffffffffffffffffffffffffffffff166114da82610874565b73ffffffffffffffffffffffffffffffffffffffff1614611530576040517f08c379a000000000000000000000000000000000000000000000000000000000815260040161152790612fec565b60405180910390fd5b600073ffffffffffffffffffffffffffffffffffffffff168273ffffffffffffffffffffffffffffffffffffffff1614156115a0576040517f08c379a000000000000000000000000000000000000000000000000000000000815260040161159790612eac565b60405180910390fd5b6115ab838383611f55565b6115b6600082611323565b6001600360008573ffffffffffffffffffffffffffffffffffffffff1673ffffffffffffffffffffffffffffffffffffffff16815260200190815260200160002060008282546116069190613236565b925050819055506001600360008473ffffffffffffffffffffffffffffffffffffffff1673ffffffffffffffffffffffffffffffffffffffff168152602001908152602001600020600082825461165d9190613155565b92505081905550816002600083815260200190815260200160002060006101000a81548173ffffffffffffffffffffffffffffffffffffffff021916908373ffffffffffffffffffffffffffffffffffffffff160217905550808273ffffffffffffffffffffffffffffffffffffffff168473ffffffffffffffffffffffffffffffffffffffff167fddf252ad1be2c89b69c2b068fc378daa952ba7f163c4a11628f55a4df523b3ef60405160405180910390a4505050565b6060600082141561175e576040518060400160405280600181526020017f300000000000000000000000000000000000000000000000000000000000000081525090506118be565b600082905060005b6000821461179057808061177990613383565b915050600a8261178991906131ab565b9150611766565b60008167ffffffffffffffff8111156117d2577f4e487b7100000000000000000000000000000000000000000000000000000000600052604160045260246000fd5b6040519080825280601f01601f1916602001820160405280156118045781602001600182028036833780820191505090505b5090505b600085146118b75760018261181d9190613236565b9150600a8561182c91906133cc565b60306118389190613155565b60f81b818381518110611874577f4e487b7100000000000000000000000000000000000000000000000000000000600052603260045260246000fd5b60200101907effffffffffffffffffffffffffffffffffffffffffffffffffffffffffffff1916908160001a905350600a856118b091906131ab565b9450611808565b8093505050505b919050565b6000816040516020016118d69190612ba0565b6040516020818303038152906040528051906020012060001c9050919050565b8173ffffffffffffffffffffffffffffffffffffffff168373ffffffffffffffffffffffffffffffffffffffff161415611965576040517f08c379a000000000000000000000000000000000000000000000000000000000815260040161195c90612ecc565b60405180910390fd5b80600560008573ffffffffffffffffffffffffffffffffffffffff1673ffffffffffffffffffffffffffffffffffffffff16815260200190815260200160002060008473ffffffffffffffffffffffffffffffffffffffff1673ffffffffffffffffffffffffffffffffffffffff16815260200190815260200160002060006101000a81548160ff0219169083151502179055508173ffffffffffffffffffffffffffffffffffffffff168373ffffffffffffffffffffffffffffffffffffffff167f17307eab39ab6107e8899845ad3d59bd9653f200f220920489ca2b5937696c3183604051611a569190612dba565b60405180910390a3505050565b611a6e8484846114ba565b611a7a84848484611f5a565b611ab9576040517f08c379a0000000000000000000000000000000000000000000000000000000008152600401611ab090612e6c565b60405180910390fd5b50505050565b606060405180602001604052806000815250905090565b6060611ae1826112af565b611b20576040517f08c379a0000000000000000000000000000000000000000000000000000000008152600401611b179061300c565b60405180910390fd5b6000611b2a611abf565b90506000815111611b4a5760405180602001604052806000815250611b75565b80611b5484611716565b604051602001611b65929190612bb7565b6040516020818303038152906040525b915050919050565b600081600001549050919050565b60606000825190506000811415611bb45760405180602001604052806000815250915050611d44565b60006003600283611bc59190613155565b611bcf91906131ab565b6004611bdb91906131dc565b90506000602082611bec9190613155565b67ffffffffffffffff811115611c2b577f4e487b7100000000000000000000000000000000000000000000000000000000600052604160045260246000fd5b6040519080825280601f01601f191660200182016040528015611c5d5781602001600182028036833780820191505090505b5090506000604051806060016040528060408152602001613bfc604091399050600181016020830160005b86811015611d015760038101905062ffffff818a015116603f8160121c168401518060081b905060ff603f83600c1c1686015116810190508060081b905060ff603f8360061c1686015116810190508060081b905060ff603f831686015116810190508060e01b90508084526004840193505050611c88565b506003860660018114611d1b5760028114611d2b57611d36565b613d3d60f01b6002830352611d36565b603d60f81b60018303525b508484525050819450505050505b919050565b611de18282604051602401611d5f929190612df7565b6040516020818303038152906040527f4b5c4277000000000000000000000000000000000000000000000000000000007bffffffffffffffffffffffffffffffffffffffffffffffffffffffff19166020820180517bffffffffffffffffffffffffffffffffffffffffffffffffffffffff8381831617835250505050611f2c565b5050565b611dff8282604051806020016040528060008152506120f1565b5050565b611e0c826112af565b611e4b576040517f08c379a0000000000000000000000000000000000000000000000000000000008152600401611e4290612f6c565b60405180910390fd5b80600660008481526020019081526020016000209080519060200190611e7292919061232d565b505050565b6001816000016000828254019250508190555050565b611f27838383604051602401611ea593929190612e2e565b6040516020818303038152906040527fe3849f79000000000000000000000000000000000000000000000000000000007bffffffffffffffffffffffffffffffffffffffffffffffffffffffff19166020820180517bffffffffffffffffffffffffffffffffffffffffffffffffffffffff8381831617835250505050611f2c565b505050565b60008151905060006a636f6e736f6c652e6c6f679050602083016000808483855afa5050505050565b505050565b6000611f7b8473ffffffffffffffffffffffffffffffffffffffff1661214c565b156120e4578373ffffffffffffffffffffffffffffffffffffffff1663150b7a02611fa461131b565b8786866040518563ffffffff1660e01b8152600401611fc69493929190612d45565b602060405180830381600087803b158015611fe057600080fd5b505af192505050801561201157506040513d601f19601f8201168201806040525081019061200e9190612671565b60015b612094573d8060008114612041576040519150601f19603f3d011682016040523d82523d6000602084013e612046565b606091505b5060008151141561208c576040517f08c379a000000000000000000000000000000000000000000000000000000000815260040161208390612e6c565b60405180910390fd5b805181602001fd5b63150b7a0260e01b7bffffffffffffffffffffffffffffffffffffffffffffffffffffffff1916817bffffffffffffffffffffffffffffffffffffffffffffffffffffffff1916149150506120e9565b600190505b949350505050565b6120fb838361215f565b6121086000848484611f5a565b612147576040517f08c379a000000000000000000000000000000000000000000000000000000000815260040161213e90612e6c565b60405180910390fd5b505050565b600080823b905060008111915050919050565b600073ffffffffffffffffffffffffffffffffffffffff168273ffffffffffffffffffffffffffffffffffffffff1614156121cf576040517f08c379a00000000000000000000000000000000000000000000000000000000081526004016121c690612f8c565b60405180910390fd5b6121d8816112af565b15612218576040517f08c379a000000000000000000000000000000000000000000000000000000000815260040161220f90612e8c565b60405180910390fd5b61222460008383611f55565b6001600360008473ffffffffffffffffffffffffffffffffffffffff1673ffffffffffffffffffffffffffffffffffffffff16815260200190815260200160002060008282546122749190613155565b92505081905550816002600083815260200190815260200160002060006101000a81548173ffffffffffffffffffffffffffffffffffffffff021916908373ffffffffffffffffffffffffffffffffffffffff160217905550808273ffffffffffffffffffffffffffffffffffffffff16600073ffffffffffffffffffffffffffffffffffffffff167fddf252ad1be2c89b69c2b068fc378daa952ba7f163c4a11628f55a4df523b3ef60405160405180910390a45050565b82805461233990613320565b90600052602060002090601f01602090048101928261235b57600085556123a2565b82601f1061237457805160ff19168380011785556123a2565b828001600101855582156123a2579182015b828111156123a1578251825591602001919060010190612386565b5b5090506123af91906123b3565b5090565b5b808211156123cc5760008160009055506001016123b4565b5090565b60006123e36123de846130cc565b6130a7565b9050828152602081018484840111156123fb57600080fd5b6124068482856132de565b509392505050565b60008135905061241d81613b7a565b92915050565b60008135905061243281613b91565b92915050565b60008135905061244781613ba8565b92915050565b60008151905061245c81613ba8565b92915050565b600082601f83011261247357600080fd5b81356124838482602086016123d0565b91505092915050565b60008135905061249b81613bbf565b92915050565b6000602082840312156124b357600080fd5b60006124c18482850161240e565b91505092915050565b600080604083850312156124dd57600080fd5b60006124eb8582860161240e565b92505060206124fc8582860161240e565b9150509250929050565b60008060006060848603121561251b57600080fd5b60006125298682870161240e565b935050602061253a8682870161240e565b925050604061254b8682870161248c565b9150509250925092565b6000806000806080858703121561256b57600080fd5b60006125798782880161240e565b945050602061258a8782880161240e565b935050604061259b8782880161248c565b925050606085013567ffffffffffffffff8111156125b857600080fd5b6125c487828801612462565b91505092959194509250565b600080604083850312156125e357600080fd5b60006125f18582860161240e565b925050602061260285828601612423565b9150509250929050565b6000806040838503121561261f57600080fd5b600061262d8582860161240e565b925050602061263e8582860161248c565b9150509250929050565b60006020828403121561265a57600080fd5b600061266884828501612438565b91505092915050565b60006020828403121561268357600080fd5b60006126918482850161244d565b91505092915050565b6000602082840312156126ac57600080fd5b60006126ba8482850161248c565b91505092915050565b6126cc8161326a565b82525050565b6126db8161327c565b82525050565b60006126ec82613112565b6126f68185613128565b93506127068185602086016132ed565b61270f816134b9565b840191505092915050565b60006127258261311d565b61272f8185613139565b935061273f8185602086016132ed565b612748816134b9565b840191505092915050565b600061275e8261311d565b612768818561314a565b93506127788185602086016132ed565b80840191505092915050565b6000815461279181613320565b61279b818661314a565b945060018216600081146127b657600181146127c7576127fa565b60ff198316865281860193506127fa565b6127d0856130fd565b60005b838110156127f2578154818901526001820191506020810190506127d3565b838801955050505b50505092915050565b600061281060258361314a565b915061281b826134ca565b602582019050919050565b6000612833603283613139565b915061283e82613519565b604082019050919050565b6000612856601c83613139565b915061286182613568565b602082019050919050565b6000612879600a8361314a565b915061288482613591565b600a82019050919050565b600061289c602483613139565b91506128a7826135ba565b604082019050919050565b60006128bf601983613139565b91506128ca82613609565b602082019050919050565b60006128e260638361314a565b91506128ed82613632565b606382019050919050565b6000612905600b8361314a565b9150612910826136cd565b600b82019050919050565b6000612928602c83613139565b9150612933826136f6565b604082019050919050565b600061294b600d8361314a565b915061295682613745565b600d82019050919050565b600061296e603883613139565b91506129798261376e565b604082019050919050565b6000612991602a83613139565b915061299c826137bd565b604082019050919050565b60006129b4602983613139565b91506129bf8261380c565b604082019050919050565b60006129d7602e83613139565b91506129e28261385b565b604082019050919050565b60006129fa60028361314a565b9150612a05826138aa565b600282019050919050565b6000612a1d602083613139565b9150612a28826138d3565b602082019050919050565b6000612a40603183613139565b9150612a4b826138fc565b604082019050919050565b6000612a63602c83613139565b9150612a6e8261394b565b604082019050919050565b6000612a86602983613139565b9150612a918261399a565b604082019050919050565b6000612aa9602f83613139565b9150612ab4826139e9565b604082019050919050565b6000612acc600a8361314a565b9150612ad782613a38565b600a82019050919050565b6000612aef602183613139565b9150612afa82613a61565b604082019050919050565b6000612b12600a8361314a565b9150612b1d82613ab0565b600a82019050919050565b6000612b35601d8361314a565b9150612b4082613ad9565b601d82019050919050565b6000612b58603183613139565b9150612b6382613b02565b604082019050919050565b6000612b7b601d83613139565b9150612b8682613b51565b602082019050919050565b612b9a816132d4565b82525050565b6000612bac8284612753565b915081905092915050565b6000612bc38285612753565b9150612bcf8284612753565b91508190509392505050565b6000612be78286612753565b9150612bf38285612753565b9150612bff8284612753565b9150819050949350505050565b6000612c188285612784565b9150612c248284612753565b9150612c2f8261293e565b91508190509392505050565b6000612c4682612803565b9150612c528284612753565b915081905092915050565b6000612c688261286c565b9150612c748284612753565b915081905092915050565b6000612c8a826128f8565b9150612c968284612753565b915081905092915050565b6000612cac82612abf565b9150612cb88285612753565b9150612cc3826128d5565b9150612ccf8284612753565b9150612cda826129ed565b91508190509392505050565b6000612cf182612b05565b9150612cfd8284612753565b915081905092915050565b6000612d1382612b28565b9150612d1f8284612753565b915081905092915050565b6000602082019050612d3f60008301846126c3565b92915050565b6000608082019050612d5a60008301876126c3565b612d6760208301866126c3565b612d746040830185612b91565b8181036060830152612d8681846126e1565b905095945050505050565b6000604082019050612da660008301856126c3565b612db36020830184612b91565b9392505050565b6000602082019050612dcf60008301846126d2565b92915050565b60006020820190508181036000830152612def818461271a565b905092915050565b60006040820190508181036000830152612e11818561271a565b90508181036020830152612e25818461271a565b90509392505050565b60006060820190508181036000830152612e48818661271a565b9050612e576020830185612b91565b612e6460408301846126c3565b949350505050565b60006020820190508181036000830152612e8581612826565b9050919050565b60006020820190508181036000830152612ea581612849565b9050919050565b60006020820190508181036000830152612ec58161288f565b9050919050565b60006020820190508181036000830152612ee5816128b2565b9050919050565b60006020820190508181036000830152612f058161291b565b9050919050565b60006020820190508181036000830152612f2581612961565b9050919050565b60006020820190508181036000830152612f4581612984565b9050919050565b60006020820190508181036000830152612f65816129a7565b9050919050565b60006020820190508181036000830152612f85816129ca565b9050919050565b60006020820190508181036000830152612fa581612a10565b9050919050565b60006020820190508181036000830152612fc581612a33565b9050919050565b60006020820190508181036000830152612fe581612a56565b9050919050565b6000602082019050818103600083015261300581612a79565b9050919050565b6000602082019050818103600083015261302581612a9c565b9050919050565b6000602082019050818103600083015261304581612ae2565b9050919050565b6000602082019050818103600083015261306581612b4b565b9050919050565b6000602082019050818103600083015261308581612b6e565b9050919050565b60006020820190506130a16000830184612b91565b92915050565b60006130b16130c2565b90506130bd8282613352565b919050565b6000604051905090565b600067ffffffffffffffff8211156130e7576130e661348a565b5b6130f0826134b9565b9050602081019050919050565b60008190508160005260206000209050919050565b600081519050919050565b600081519050919050565b600082825260208201905092915050565b600082825260208201905092915050565b600081905092915050565b6000613160826132d4565b915061316b836132d4565b9250827fffffffffffffffffffffffffffffffffffffffffffffffffffffffffffffffff038211156131a05761319f6133fd565b5b828201905092915050565b60006131b6826132d4565b91506131c1836132d4565b9250826131d1576131d061342c565b5b828204905092915050565b60006131e7826132d4565b91506131f2836132d4565b9250817fffffffffffffffffffffffffffffffffffffffffffffffffffffffffffffffff048311821515161561322b5761322a6133fd565b5b828202905092915050565b6000613241826132d4565b915061324c836132d4565b92508282101561325f5761325e6133fd565b5b828203905092915050565b6000613275826132b4565b9050919050565b60008115159050919050565b60007fffffffff0000000000000000000000000000000000000000000000000000000082169050919050565b600073ffffffffffffffffffffffffffffffffffffffff82169050919050565b6000819050919050565b82818337600083830152505050565b60005b8381101561330b5780820151818401526020810190506132f0565b8381111561331a576000848401525b50505050565b6000600282049050600182168061333857607f821691505b6020821081141561334c5761334b61345b565b5b50919050565b61335b826134b9565b810181811067ffffffffffffffff8211171561337a5761337961348a565b5b80604052505050565b600061338e826132d4565b91507fffffffffffffffffffffffffffffffffffffffffffffffffffffffffffffffff8214156133c1576133c06133fd565b5b600182019050919050565b60006133d7826132d4565b91506133e2836132d4565b9250826133f2576133f161342c565b5b828206905092915050565b7f4e487b7100000000000000000000000000000000000000000000000000000000600052601160045260246000fd5b7f4e487b7100000000000000000000000000000000000000000000000000000000600052601260045260246000fd5b7f4e487b7100000000000000000000000000000000000000000000000000000000600052602260045260246000fd5b7f4e487b7100000000000000000000000000000000000000000000000000000000600052604160045260246000fd5b6000601f19601f8301169050919050565b7f68747470733a2f2f6e6674707265766965772e30786465762e636f6465732f3f60008201527f636f64653d000000000000000000000000000000000000000000000000000000602082015250565b7f4552433732313a207472616e7366657220746f206e6f6e20455243373231526560008201527f63656976657220696d706c656d656e7465720000000000000000000000000000602082015250565b7f4552433732313a20746f6b656e20616c7265616479206d696e74656400000000600082015250565b7f54484952445f574f524400000000000000000000000000000000000000000000600082015250565b7f4552433732313a207472616e7366657220746f20746865207a65726f2061646460008201527f7265737300000000000000000000000000000000000000000000000000000000602082015250565b7f4552433732313a20617070726f766520746f2063616c6c657200000000000000600082015250565b7f222c20226465736372697074696f6e223a20224120686967686c79206163636c60008201527f61696d656420636f6c6c656374696f6e206f6620737175617265732e222c202260208201527f696d616765223a2022646174613a696d6167652f7376672b786d6c3b6261736560408201527f36342c0000000000000000000000000000000000000000000000000000000000606082015250565b7f5345434f4e445f574f5244000000000000000000000000000000000000000000600082015250565b7f4552433732313a206f70657261746f7220717565727920666f72206e6f6e657860008201527f697374656e7420746f6b656e0000000000000000000000000000000000000000602082015250565b7f3c2f746578743e3c2f7376673e00000000000000000000000000000000000000600082015250565b7f4552433732313a20617070726f76652063616c6c6572206973206e6f74206f7760008201527f6e6572206e6f7220617070726f76656420666f7220616c6c0000000000000000602082015250565b7f4552433732313a2062616c616e636520717565727920666f7220746865207a6560008201527f726f206164647265737300000000000000000000000000000000000000000000602082015250565b7f4552433732313a206f776e657220717565727920666f72206e6f6e657869737460008201527f656e7420746f6b656e0000000000000000000000000000000000000000000000602082015250565b7f45524337323155524953746f726167653a2055524920736574206f66206e6f6e60008201527f6578697374656e7420746f6b656e000000000000000000000000000000000000602082015250565b7f227d000000000000000000000000000000000000000000000000000000000000600082015250565b7f4552433732313a206d696e7420746f20746865207a65726f2061646472657373600082015250565b7f45524337323155524953746f726167653a2055524920717565727920666f722060008201527f6e6f6e6578697374656e7420746f6b656e000000000000000000000000000000602082015250565b7f4552433732313a20617070726f76656420717565727920666f72206e6f6e657860008201527f697374656e7420746f6b656e0000000000000000000000000000000000000000602082015250565b7f4552433732313a207472616e73666572206f6620746f6b656e2074686174206960008201527f73206e6f74206f776e0000000000000000000000000000000000000000000000602082015250565b7f4552433732314d657461646174613a2055524920717565727920666f72206e6f60008201527f6e6578697374656e7420746f6b656e0000000000000000000000000000000000602082015250565b7f7b226e616d65223a202200000000000000000000000000000000000000000000600082015250565b7f4552433732313a20617070726f76616c20746f2063757272656e74206f776e6560008201527f7200000000000000000000000000000000000000000000000000000000000000602082015250565b7f46495253545f574f524400000000000000000000000000000000000000000000600082015250565b7f646174613a6170706c69636174696f6e2f6a736f6e3b6261736536342c000000600082015250565b7f4552433732313a207472616e736665722063616c6c6572206973206e6f74206f60008201527f776e6572206e6f7220617070726f766564000000000000000000000000000000602082015250565b7f4d6178696d756d206e756d626572206f66204e465473206d696e746564000000600082015250565b613b838161326a565b8114613b8e57600080fd5b50565b613b9a8161327c565b8114613ba557600080fd5b50565b613bb181613288565b8114613bbc57600080fd5b50565b613bc8816132d4565b8114613bd357600080fd5b5056fe416e204e465420772f20494420257320686173206265656e206d696e74656420746f2025734142434445464748494a4b4c4d4e4f505152535455565758595a6162636465666768696a6b6c6d6e6f707172737475767778797a303132333435363738392b2fa26469706673582212201328a1dbada235a797f484f43f66bd541044c11a59633770a62ed867d188d39e64736f6c634300080400333c73766720786d6c6e733d27687474703a2f2f7777772e77332e6f72672f323030302f73766727207072657365727665417370656374526174696f3d27784d696e594d696e206d656574272076696577426f783d273020302033353020333530273e3c7374796c653e2e62617365207b2066696c6c3a2077686974653b20666f6e742d66616d696c793a2073657269663b20666f6e742d73697a653a20323470783b207d3c2f7374796c653e3c726563742077696474683d273130302527206865696768743d2731303025272066696c6c3d27626c61636b27202f3e3c7465787420783d273530252720793d273530252720636c6173733d27626173652720646f6d696e616e742d626173656c696e653d276d6964646c652720746578742d616e63686f723d276d6964646c65273e",
  "linkReferences": {},
  "deployedLinkReferences": {}
}